{
  "contractName": "LoanDB",
  "abi": [
    {
      "inputs": [],
      "payable": false,
      "stateMutability": "nonpayable",
      "type": "constructor"
    },
    {
      "constant": true,
      "inputs": [],
      "name": "state",
      "outputs": [
        {
          "internalType": "enum LoanDB.LoanState",
          "name": "",
          "type": "uint8"
        }
      ],
      "payable": false,
      "stateMutability": "view",
      "type": "function"
    },
    {
      "constant": false,
      "inputs": [
        {
          "internalType": "uint256",
          "name": "_id",
          "type": "uint256"
        },
        {
          "internalType": "address",
          "name": "_borrower",
          "type": "address"
        },
        {
          "internalType": "uint256",
          "name": "_amount",
          "type": "uint256"
        },
        {
          "internalType": "uint256",
          "name": "_interest",
          "type": "uint256"
        }
      ],
      "name": "addDebt",
      "outputs": [],
      "payable": false,
      "stateMutability": "nonpayable",
      "type": "function"
    },
    {
      "constant": false,
      "inputs": [
        {
          "internalType": "uint256",
          "name": "_id",
          "type": "uint256"
        },
        {
          "internalType": "address",
          "name": "_lender",
          "type": "address"
        }
      ],
      "name": "updateLender",
      "outputs": [],
      "payable": false,
      "stateMutability": "nonpayable",
      "type": "function"
    },
    {
      "constant": false,
      "inputs": [
        {
          "internalType": "uint256",
          "name": "_id",
          "type": "uint256"
        }
      ],
      "name": "paidDebt",
      "outputs": [],
      "payable": false,
      "stateMutability": "nonpayable",
      "type": "function"
    },
    {
      "constant": true,
      "inputs": [
        {
          "internalType": "uint256",
          "name": "_id",
          "type": "uint256"
        }
      ],
      "name": "getLenderofDebt",
      "outputs": [
        {
          "internalType": "address",
          "name": "",
          "type": "address"
        }
      ],
      "payable": false,
      "stateMutability": "view",
      "type": "function"
    },
    {
      "constant": true,
      "inputs": [
        {
          "internalType": "uint256",
          "name": "_id",
          "type": "uint256"
        }
      ],
      "name": "getBorrowerofDebt",
      "outputs": [
        {
          "internalType": "address",
          "name": "",
          "type": "address"
        }
      ],
      "payable": false,
      "stateMutability": "view",
      "type": "function"
    },
    {
      "constant": true,
      "inputs": [
        {
          "internalType": "uint256",
          "name": "_id",
          "type": "uint256"
        }
      ],
      "name": "getAmountofDebt",
      "outputs": [
        {
          "internalType": "uint256",
          "name": "",
          "type": "uint256"
        }
      ],
      "payable": false,
      "stateMutability": "view",
      "type": "function"
    },
    {
      "constant": true,
      "inputs": [
        {
          "internalType": "uint256",
          "name": "_id",
          "type": "uint256"
        }
      ],
      "name": "getInterestofDebt",
      "outputs": [
        {
          "internalType": "uint256",
          "name": "",
          "type": "uint256"
        }
      ],
      "payable": false,
      "stateMutability": "view",
      "type": "function"
    },
    {
      "constant": true,
      "inputs": [
        {
          "internalType": "uint256",
          "name": "_id",
          "type": "uint256"
        }
      ],
      "name": "getStateofDebt",
      "outputs": [
        {
          "internalType": "uint8",
          "name": "",
          "type": "uint8"
        }
      ],
      "payable": false,
      "stateMutability": "view",
      "type": "function"
    },
    {
      "constant": true,
      "inputs": [
        {
          "internalType": "address",
          "name": "_address",
          "type": "address"
        }
      ],
      "name": "getDebtHistory",
      "outputs": [
        {
          "internalType": "uint256[]",
          "name": "",
          "type": "uint256[]"
        }
      ],
      "payable": false,
      "stateMutability": "view",
      "type": "function"
    },
    {
      "constant": true,
      "inputs": [
        {
          "internalType": "address",
          "name": "_address",
          "type": "address"
        }
      ],
      "name": "getLendHistory",
      "outputs": [
        {
          "internalType": "uint256[]",
          "name": "",
          "type": "uint256[]"
        }
      ],
      "payable": false,
      "stateMutability": "view",
      "type": "function"
    }
  ],
  "bytecode": "0x60806040526000600460006101000a81548160ff0219169083600281111561002357fe5b021790555034801561003457600080fd5b506109ef806100446000396000f3fe608060405234801561001057600080fd5b50600436106100a95760003560e01c8063908335901161007157806390833590146102d2578063bfc3f98014610334578063c19d93fb1461037c578063ce35b0e4146103a8578063e2947b2914610416578063f710e5b114610444576100a9565b806343505730146100ae5780634a453b8a14610147578063694b9cf3146101b557806373400caf146101f75780638f21f51e14610290575b600080fd5b6100f0600480360360208110156100c457600080fd5b81019080803573ffffffffffffffffffffffffffffffffffffffff169060200190929190505050610492565b6040518080602001828103825283818151815260200191508051906020019060200280838360005b83811015610133578082015181840152602081019050610118565b505050509050019250505060405180910390f35b6101736004803603602081101561015d57600080fd5b8101908080359060200190929190505050610529565b604051808273ffffffffffffffffffffffffffffffffffffffff1673ffffffffffffffffffffffffffffffffffffffff16815260200191505060405180910390f35b6101e1600480360360208110156101cb57600080fd5b8101908080359060200190929190505050610568565b6040518082815260200191505060405180910390f35b6102396004803603602081101561020d57600080fd5b81019080803573ffffffffffffffffffffffffffffffffffffffff169060200190929190505050610587565b6040518080602001828103825283818151815260200191508051906020019060200280838360005b8381101561027c578082015181840152602081019050610261565b505050509050019250505060405180910390f35b6102bc600480360360208110156102a657600080fd5b810190808035906020019092919050505061061e565b6040518082815260200191505060405180910390f35b610332600480360360808110156102e857600080fd5b8101908080359060200190929190803573ffffffffffffffffffffffffffffffffffffffff169060200190929190803590602001909291908035906020019092919050505061063d565b005b6103606004803603602081101561034a57600080fd5b8101908080359060200190929190505050610805565b604051808260ff1660ff16815260200191505060405180910390f35b610384610831565b6040518082600281111561039457fe5b60ff16815260200191505060405180910390f35b6103d4600480360360208110156103be57600080fd5b8101908080359060200190929190505050610844565b604051808273ffffffffffffffffffffffffffffffffffffffff1673ffffffffffffffffffffffffffffffffffffffff16815260200191505060405180910390f35b6104426004803603602081101561042c57600080fd5b8101908080359060200190929190505050610883565b005b6104906004803603604081101561045a57600080fd5b8101908080359060200190929190803573ffffffffffffffffffffffffffffffffffffffff1690602001909291905050506108bf565b005b6060600160008373ffffffffffffffffffffffffffffffffffffffff1673ffffffffffffffffffffffffffffffffffffffff16815260200190815260200160002080548060200260200160405190810160405280929190818152602001828054801561051d57602002820191906000526020600020905b815481526020019060010190808311610509575b50505050509050919050565b600080600083815260200190815260200160002060010160009054906101000a900473ffffffffffffffffffffffffffffffffffffffff169050919050565b6000806000838152602001908152602001600020600401549050919050565b6060600260008373ffffffffffffffffffffffffffffffffffffffff1673ffffffffffffffffffffffffffffffffffffffff16815260200190815260200160002080548060200260200160405190810160405280929190818152602001828054801561061257602002820191906000526020600020905b8154815260200190600101908083116105fe575b50505050509050919050565b6000806000838152602001908152602001600020600301549050919050565b6040518060c001604052808581526020018473ffffffffffffffffffffffffffffffffffffffff168152602001600073ffffffffffffffffffffffffffffffffffffffff168152602001838152602001828152602001600460009054906101000a900460ff1660028111156106ae57fe5b60ff168152506000808681526020019081526020016000206000820151816000015560208201518160010160006101000a81548173ffffffffffffffffffffffffffffffffffffffff021916908373ffffffffffffffffffffffffffffffffffffffff16021790555060408201518160020160006101000a81548173ffffffffffffffffffffffffffffffffffffffff021916908373ffffffffffffffffffffffffffffffffffffffff160217905550606082015181600301556080820151816004015560a08201518160050160006101000a81548160ff021916908360ff160217905550905050600160008473ffffffffffffffffffffffffffffffffffffffff1673ffffffffffffffffffffffffffffffffffffffff16815260200190815260200160002084908060018154018082558091505090600182039060005260206000200160009091929091909150555050505050565b600080600083815260200190815260200160002060050160009054906101000a900460ff169050919050565b600460009054906101000a900460ff1681565b600080600083815260200190815260200160002060020160009054906101000a900473ffffffffffffffffffffffffffffffffffffffff169050919050565b60028081111561088f57fe5b60008083815260200190815260200160002060050160006101000a81548160ff021916908360ff16021790555050565b8060008084815260200190815260200160002060020160006101000a81548173ffffffffffffffffffffffffffffffffffffffff021916908373ffffffffffffffffffffffffffffffffffffffff1602179055506001600281111561092057fe5b60008084815260200190815260200160002060050160006101000a81548160ff021916908360ff160217905550600260008273ffffffffffffffffffffffffffffffffffffffff1673ffffffffffffffffffffffffffffffffffffffff168152602001908152602001600020829080600181540180825580915050906001820390600052602060002001600090919290919091505550505056fea265627a7a723158201db46d6a49d8598f54ee702c68dda21af13a5d8355aff864f0c70a531586d45764736f6c63430005100032",
  "source": "//SPDX-License-Identifier: MIT\npragma solidity >=0.5.0 <0.7.0;\n\n/**\n  @title loanDB\n  @dev stores all the information\n  @author Bhasin Neeraj\n */\ncontract LoanDB {\n    //creating a loan state\n    enum LoanState {PENDING, ACTIVE, CLOSED}\n    //STRUCTURE\n    //storing the debt information\n    struct Debt {\n        uint256 id;\n        address borrower;\n        address lender;\n        uint256 amount;\n        uint256 interest;\n        uint8 loanState;\n    }\n    //MODALS\n    /**\n    @dev\n      1. mapping the _id to add the debt information\n      2. storing debt info with borrower addr\n      3. storing debt info with borrower lender\n      4. check given address is having debt or no\n     */\n    mapping(uint256 => Debt) private debtInfo;\n    mapping(address => uint256[]) private debtHistory;\n    mapping(address => uint256[]) private lendHistory;\n    mapping(address => bool) private haveDebt;\n\n    LoanState public state = LoanState.PENDING;\n\n    constructor() public {}\n\n    /**\n      @dev to add the debt info.\n      @param _id debt number\n      @param _borrower address of borrower\n      @param _amount amount he want\n      @param _interest interest rate\n     */\n    function addDebt(\n        uint256 _id,\n        address _borrower,\n        uint256 _amount,\n        uint256 _interest\n    ) external {\n        debtInfo[_id] = Debt(\n            _id,\n            _borrower,\n            address(0),\n            _amount,\n            _interest,\n            uint8(state)\n        );\n        debtHistory[_borrower].push(_id);\n    }\n\n    /**\n      @dev called when someone lends the moneya and update the lender\n      @param _id debt number\n      @param _lender address of lender\n     */\n    function updateLender(uint256 _id, address _lender) external {\n        debtInfo[_id].lender = _lender;\n        debtInfo[_id].loanState = uint8(LoanState.ACTIVE);\n        lendHistory[_lender].push(_id);\n    }\n\n    function paidDebt(uint256 _id) external {\n        debtInfo[_id].loanState = uint8(LoanState.CLOSED);\n    }\n\n    function getLenderofDebt(uint256 _id) external view returns (address) {\n        return debtInfo[_id].lender;\n    }\n\n    function getBorrowerofDebt(uint256 _id) external view returns (address) {\n        return debtInfo[_id].borrower;\n    }\n\n    function getAmountofDebt(uint256 _id) external view returns (uint256) {\n        return debtInfo[_id].amount;\n    }\n\n    function getInterestofDebt(uint256 _id) external view returns (uint256) {\n        return debtInfo[_id].interest;\n    }\n\n    function getStateofDebt(uint256 _id) external view returns (uint8) {\n        return debtInfo[_id].loanState;\n    }\n\n    function getDebtHistory(address _address)\n        external\n        view\n        returns (uint256[] memory)\n    {\n        return debtHistory[_address];\n    }\n\n    function getLendHistory(address _address)\n        external\n        view\n        returns (uint256[] memory)\n    {\n        return lendHistory[_address];\n    }\n}\n",
  "sourcePath": "/Users/bhasineeraj/bhasineeraj/smartContracts/GBCDesignPatternMicroLoans/contracts/LoanDB.sol",
  "compiler": {
    "name": "solc",
    "version": "0.5.16+commit.9c3226ce.Emscripten.clang"
  },
  "schemaVersion": "3.2.0",
  "updatedAt": "2020-06-15T02:13:17.476Z",
  "devdoc": {
    "author": "Bhasin Neeraj",
    "details": "stores all the information",
    "methods": {
      "addDebt(uint256,address,uint256,uint256)": {
        "details": "to add the debt info.",
        "params": {
          "_amount": "amount he want",
          "_borrower": "address of borrower",
          "_id": "debt number",
          "_interest": "interest rate"
        }
      },
      "updateLender(uint256,address)": {
        "details": "called when someone lends the moneya and update the lender",
        "params": {
          "_id": "debt number",
          "_lender": "address of lender"
        }
      }
    },
    "title": "loanDB"
  },
  "userdoc": {
    "methods": {}
  }
}